{
  "_format": "hh-sol-artifact-1",
  "contractName": "MessageSaver",
  "sourceName": "contracts/MessageSaver.sol",
  "abi": [
    {
      "inputs": [
        {
          "internalType": "string",
          "name": "_msg",
          "type": "string"
        }
      ],
      "stateMutability": "nonpayable",
      "type": "constructor"
    },
    {
      "inputs": [],
      "name": "readMsg",
      "outputs": [
        {
          "internalType": "string",
          "name": "",
          "type": "string"
        }
      ],
      "stateMutability": "view",
      "type": "function"
    },
    {
      "inputs": [
        {
          "internalType": "string",
          "name": "_msg",
          "type": "string"
        }
      ],
      "name": "saveMsg",
      "outputs": [],
      "stateMutability": "nonpayable",
      "type": "function"
    }
  ],
  "bytecode": "0x60806040523480156200001157600080fd5b50604051620010453803806200104583398181016040528101906200003791906200031e565b620000626040518060600160405280602281526020016200102360229139826200007b60201b60201c565b8060009081620000739190620005ba565b50506200075d565b6200011d828260405160240162000094929190620006f3565b6040516020818303038152906040527f4b5c4277000000000000000000000000000000000000000000000000000000007bffffffffffffffffffffffffffffffffffffffffffffffffffffffff19166020820180517bffffffffffffffffffffffffffffffffffffffffffffffffffffffff83818316178352505050506200012160201b60201c565b5050565b6200014781620001426200014a60201b620001c7176200016b60201b60201c565b60201c565b50565b60006a636f6e736f6c652e6c6f679050600080835160208501845afa505050565b6200017f60201b620002ac17819050919050565b620001896200072e565b565b6000604051905090565b600080fd5b600080fd5b600080fd5b600080fd5b6000601f19601f8301169050919050565b7f4e487b7100000000000000000000000000000000000000000000000000000000600052604160045260246000fd5b620001f482620001a9565b810181811067ffffffffffffffff82111715620002165762000215620001ba565b5b80604052505050565b60006200022b6200018b565b9050620002398282620001e9565b919050565b600067ffffffffffffffff8211156200025c576200025b620001ba565b5b6200026782620001a9565b9050602081019050919050565b60005b838110156200029457808201518184015260208101905062000277565b60008484015250505050565b6000620002b7620002b1846200023e565b6200021f565b905082815260208101848484011115620002d657620002d5620001a4565b5b620002e384828562000274565b509392505050565b600082601f8301126200030357620003026200019f565b5b815162000315848260208601620002a0565b91505092915050565b60006020828403121562000337576200033662000195565b5b600082015167ffffffffffffffff8111156200035857620003576200019a565b5b6200036684828501620002eb565b91505092915050565b600081519050919050565b7f4e487b7100000000000000000000000000000000000000000000000000000000600052602260045260246000fd5b60006002820490506001821680620003c257607f821691505b602082108103620003d857620003d76200037a565b5b50919050565b60008190508160005260206000209050919050565b60006020601f8301049050919050565b600082821b905092915050565b600060088302620004427fffffffffffffffffffffffffffffffffffffffffffffffffffffffffffffffff8262000403565b6200044e868362000403565b95508019841693508086168417925050509392505050565b6000819050919050565b6000819050919050565b60006200049b620004956200048f8462000466565b62000470565b62000466565b9050919050565b6000819050919050565b620004b7836200047a565b620004cf620004c682620004a2565b84845462000410565b825550505050565b600090565b620004e6620004d7565b620004f3818484620004ac565b505050565b5b818110156200051b576200050f600082620004dc565b600181019050620004f9565b5050565b601f8211156200056a576200053481620003de565b6200053f84620003f3565b810160208510156200054f578190505b620005676200055e85620003f3565b830182620004f8565b50505b505050565b600082821c905092915050565b60006200058f600019846008026200056f565b1980831691505092915050565b6000620005aa83836200057c565b9150826002028217905092915050565b620005c5826200036f565b67ffffffffffffffff811115620005e157620005e0620001ba565b5b620005ed8254620003a9565b620005fa8282856200051f565b600060209050601f8311600181146200063257600084156200061d578287015190505b6200062985826200059c565b86555062000699565b601f1984166200064286620003de565b60005b828110156200066c5784890151825560018201915060208501945060208101905062000645565b868310156200068c578489015162000688601f8916826200057c565b8355505b6001600288020188555050505b505050505050565b600082825260208201905092915050565b6000620006bf826200036f565b620006cb8185620006a1565b9350620006dd81856020860162000274565b620006e881620001a9565b840191505092915050565b600060408201905081810360008301526200070f8185620006b2565b90508181036020830152620007258184620006b2565b90509392505050565b7f4e487b7100000000000000000000000000000000000000000000000000000000600052605160045260246000fd5b6108b6806200076d6000396000f3fe608060405234801561001057600080fd5b50600436106100365760003560e01c8063025ac4861461003b578063b6e7385e14610059575b600080fd5b610043610075565b6040516100509190610346565b60405180910390f35b610073600480360381019061006e91906104b1565b610107565b005b60606000805461008490610529565b80601f01602080910402602001604051908101604052809291908181526020018280546100b090610529565b80156100fd5780601f106100d2576101008083540402835291602001916100fd565b820191906000526020600020905b8154815290600101906020018083116100e057829003601f168201915b5050505050905090565b6101b460405180606001604052806023815260200161085e602391396000805461013090610529565b80601f016020809104026020016040519081016040528092919081815260200182805461015c90610529565b80156101a95780601f1061017e576101008083540402835291602001916101a9565b820191906000526020600020905b81548152906001019060200180831161018c57829003601f168201915b5050505050836101e8565b80600090816101c39190610710565b5050565b60006a636f6e736f6c652e6c6f679050600080835160208501845afa505050565b610282838383604051602401610200939291906107e2565b6040516020818303038152906040527f2ced7cef000000000000000000000000000000000000000000000000000000007bffffffffffffffffffffffffffffffffffffffffffffffffffffffff19166020820180517bffffffffffffffffffffffffffffffffffffffffffffffffffffffff8381831617835250505050610287565b505050565b61029e816102966101c76102a1565b63ffffffff16565b50565b6102ac819050919050565b6102b461082e565b565b600081519050919050565b600082825260208201905092915050565b60005b838110156102f05780820151818401526020810190506102d5565b60008484015250505050565b6000601f19601f8301169050919050565b6000610318826102b6565b61032281856102c1565b93506103328185602086016102d2565b61033b816102fc565b840191505092915050565b60006020820190508181036000830152610360818461030d565b905092915050565b6000604051905090565b600080fd5b600080fd5b600080fd5b600080fd5b7f4e487b7100000000000000000000000000000000000000000000000000000000600052604160045260246000fd5b6103be826102fc565b810181811067ffffffffffffffff821117156103dd576103dc610386565b5b80604052505050565b60006103f0610368565b90506103fc82826103b5565b919050565b600067ffffffffffffffff82111561041c5761041b610386565b5b610425826102fc565b9050602081019050919050565b82818337600083830152505050565b600061045461044f84610401565b6103e6565b9050828152602081018484840111156104705761046f610381565b5b61047b848285610432565b509392505050565b600082601f8301126104985761049761037c565b5b81356104a8848260208601610441565b91505092915050565b6000602082840312156104c7576104c6610372565b5b600082013567ffffffffffffffff8111156104e5576104e4610377565b5b6104f184828501610483565b91505092915050565b7f4e487b7100000000000000000000000000000000000000000000000000000000600052602260045260246000fd5b6000600282049050600182168061054157607f821691505b602082108103610554576105536104fa565b5b50919050565b60008190508160005260206000209050919050565b60006020601f8301049050919050565b600082821b905092915050565b6000600883026105bc7fffffffffffffffffffffffffffffffffffffffffffffffffffffffffffffffff8261057f565b6105c6868361057f565b95508019841693508086168417925050509392505050565b6000819050919050565b6000819050919050565b600061060d610608610603846105de565b6105e8565b6105de565b9050919050565b6000819050919050565b610627836105f2565b61063b61063382610614565b84845461058c565b825550505050565b600090565b610650610643565b61065b81848461061e565b505050565b5b8181101561067f57610674600082610648565b600181019050610661565b5050565b601f8211156106c4576106958161055a565b61069e8461056f565b810160208510156106ad578190505b6106c16106b98561056f565b830182610660565b50505b505050565b600082821c905092915050565b60006106e7600019846008026106c9565b1980831691505092915050565b600061070083836106d6565b9150826002028217905092915050565b610719826102b6565b67ffffffffffffffff81111561073257610731610386565b5b61073c8254610529565b610747828285610683565b600060209050601f83116001811461077a5760008415610768578287015190505b61077285826106f4565b8655506107da565b601f1984166107888661055a565b60005b828110156107b05784890151825560018201915060208501945060208101905061078b565b868310156107cd57848901516107c9601f8916826106d6565b8355505b6001600288020188555050505b505050505050565b600060608201905081810360008301526107fc818661030d565b90508181036020830152610810818561030d565b90508181036040830152610824818461030d565b9050949350505050565b7f4e487b7100000000000000000000000000000000000000000000000000000000600052605160045260246000fdfe4368616e67696e67206772656574696e672066726f6d202725732720746f2027257327a26469706673582212207f1711fc4bb420fa904dd7d8b0b1f22a747fedde28f66231a75855b748ab350964736f6c634300081800334465706c6f79696e67206120477265657465722077697468206772656574696e673a",
  "linkReferences": {},
  "deployedLinkReferences": {}
}